:042000001AEF10F0D3
:08200800000E936EC150F00BB5
:10201000C16E010E0F015B6F000E5F6F5C6F5D6F35
:102020005E6FC050C00B0709C06EC09EC280000129
:102030002BEF10F0F86AD09E700ED36ED26A9B6AB6
:102040000F015B6B5C6B5D6B5E6B5F6B9A6A996A91
:10205000986A0001D9D7000E016EC250830B01109F
:10206000C26EC282C2B2FED7C4CF04F004501C08B4
:1020700003E3936A8A6A33D00450380804E3936A0E
:10208000010E8A6E2CD00450540804E3936A030EA8
:102090008A6E25D00450700804E3936A070E8A6E96
:1020A0001ED004508C0804E3936A0F0E8A6E17D07A
:1020B0000450A80804E3936A1F0E8A6E10D00450DF
:1020C000C40804E3936A3F0E8A6E09D00450FC08EA
:1020D00004E3936A7F0E8A6E02D0936A8A68BBD744
:0220E0000300FB
:020000040030CA
:0E00000023C85E3C00D3A1000FC00FE00F40EC
:00000001FF
;PIC18F45K50
;CRC=F520  CREATED="01-dic.-20 10:01"
