:0420000015EF10F0D8
:08200800700ED36ED350000EE0
:10201000936EC150C00B0E09C16EC050C00B0109B8
:10202000C06EC09EC2801EEF10F0F86AD09EC150F4
:10203000C00B0F09C16E070EB46EE6D7000E016E1D
:10204000C250C30B0110C26EC282C2B2FED7C4CF4F
:1020500004F004501C0803E3936A8A6A33D00450E6
:10206000380804E3936A010E8A6E2CD00450540899
:1020700004E3936A030E8A6E25D00450700804E3CB
:10208000936A070E8A6E1ED004508C0804E3936A8C
:102090000F0E8A6E17D00450A80804E3936A1F0E2F
:1020A0008A6E10D00450C40804E3936A3F0E8A6E0F
:1020B00009D00450FC0804E3936A7F0E8A6E02D0B4
:0820C000936A8A68BBD7030094
:020000040030CA
:0E00000007CC261E0087A1000FC00FE00F40A6
:00000001FF
;PIC18F4550
;CRC=DAEF  CREATED="01-dic.-20 09:59"
